{
  "transactions": [
    {
      "hash": "0x3ffee8ddef16465e9f3fc938fe1492cdec40f49555d4c89766c98072694b9d7d",
      "transactionType": "CALL",
      "contractName": null,
      "contractAddress": "0x78cfd2d6aee191391317adc9e72f72aa062c5a84",
      "function": "grantRole(bytes32,address)",
      "arguments": [
        "0x0000000000000000000000000000000000000000000000000000000000000000",
        "0x4786fba4d836B73A39746f778Db1B298B8a62131"
      ],
      "transaction": {
        "from": "0xc49b5e5b9da66b9126c1a62e9761e6b2147de3e1",
        "to": "0x78cfd2d6aee191391317adc9e72f72aa062c5a84",
        "gas": "0x1128d",
        "value": "0x0",
        "input": "0x2f2ff15d00000000000000000000000000000000000000000000000000000000000000000000000000000000000000004786fba4d836b73a39746f778db1b298b8a62131",
        "nonce": "0x85",
        "chainId": "0x1"
      },
      "additionalContracts": [],
      "isFixedGasLimit": false
    },
    {
      "hash": "0x02882227ea4db1dd823fdcd55044a2634a32280b49f3a0b5197d6ef2240330c4",
      "transactionType": "CALL",
      "contractName": null,
      "contractAddress": "0x73837fb3b2b3ce751c0a044659c71bf9d36a20ff",
      "function": "grantRole(bytes32,address)",
      "arguments": [
        "0x0000000000000000000000000000000000000000000000000000000000000000",
        "0x4786fba4d836B73A39746f778Db1B298B8a62131"
      ],
      "transaction": {
        "from": "0xc49b5e5b9da66b9126c1a62e9761e6b2147de3e1",
        "to": "0x73837fb3b2b3ce751c0a044659c71bf9d36a20ff",
        "gas": "0x111fd",
        "value": "0x0",
        "input": "0x2f2ff15d00000000000000000000000000000000000000000000000000000000000000000000000000000000000000004786fba4d836b73a39746f778db1b298b8a62131",
        "nonce": "0x86",
        "chainId": "0x1"
      },
      "additionalContracts": [],
      "isFixedGasLimit": false
    },
    {
      "hash": "0xf99093a05ac2e0c1f6fbb37e4531cdf82eadaf6afaeb9ecab839848873d47575",
      "transactionType": "CALL",
      "contractName": null,
      "contractAddress": "0xac020a4ba4739610d496631d50578f022a6c8295",
      "function": "grantRole(bytes32,address)",
      "arguments": [
        "0x0000000000000000000000000000000000000000000000000000000000000000",
        "0x4786fba4d836B73A39746f778Db1B298B8a62131"
      ],
      "transaction": {
        "from": "0xc49b5e5b9da66b9126c1a62e9761e6b2147de3e1",
        "to": "0xac020a4ba4739610d496631d50578f022a6c8295",
        "gas": "0x111d0",
        "value": "0x0",
        "input": "0x2f2ff15d00000000000000000000000000000000000000000000000000000000000000000000000000000000000000004786fba4d836b73a39746f778db1b298b8a62131",
        "nonce": "0x87",
        "chainId": "0x1"
      },
      "additionalContracts": [],
      "isFixedGasLimit": false
    },
    {
      "hash": "0xf716c1ba271c91f966900ee00721de2014cbe78dc7753b903f6ca6c1b5c16a12",
      "transactionType": "CALL",
      "contractName": null,
      "contractAddress": "0x0f54da5a94a21fe7e0dd961577c861c508421cf1",
      "function": "grantRole(bytes32,address)",
      "arguments": [
        "0x0000000000000000000000000000000000000000000000000000000000000000",
        "0x4786fba4d836B73A39746f778Db1B298B8a62131"
      ],
      "transaction": {
        "from": "0xc49b5e5b9da66b9126c1a62e9761e6b2147de3e1",
        "to": "0x0f54da5a94a21fe7e0dd961577c861c508421cf1",
        "gas": "0x111fd",
        "value": "0x0",
        "input": "0x2f2ff15d00000000000000000000000000000000000000000000000000000000000000000000000000000000000000004786fba4d836b73a39746f778db1b298b8a62131",
        "nonce": "0x88",
        "chainId": "0x1"
      },
      "additionalContracts": [],
      "isFixedGasLimit": false
    }
  ],
  "receipts": [
    {
      "status": "0x1",
      "cumulativeGasUsed": "0xdc1105",
      "logs": [
        {
          "address": "0x78cfd2d6aee191391317adc9e72f72aa062c5a84",
          "topics": [
            "0x2f8788117e7eff1d82e926ec794901d17c78024a50270940304540a733656f0d",
            "0x0000000000000000000000000000000000000000000000000000000000000000",
            "0x0000000000000000000000004786fba4d836b73a39746f778db1b298b8a62131",
            "0x000000000000000000000000c49b5e5b9da66b9126c1a62e9761e6b2147de3e1"
          ],
          "data": "0x",
          "blockHash": "0x4a465b1ac19c5a44262b84204caf99ed01aeb44b83ca868a988ffd0a54831981",
          "blockNumber": "0x141830c",
          "transactionHash": "0x3ffee8ddef16465e9f3fc938fe1492cdec40f49555d4c89766c98072694b9d7d",
          "transactionIndex": "0x78",
          "logIndex": "0x19c",
          "removed": false
        }
      ],
      "logsBloom": "0x00008004020000000000000000000000000000000000000000000000000000000000000000000000000000000000000000000000000000000000000000000000000000000000000000000000000200000000000000080000000000000000000000000000020000000000000000100800000000000000000000000000000000000000000000000000000008000000000000000000000000000000200000000000000000001000000000000000000000000000000000000000001000000000000000000000000000000000000000000000010000000000000100000000000020000000000000000000000000000000000000000000000000000000000000000000",
      "type": "0x0",
      "transactionHash": "0x3ffee8ddef16465e9f3fc938fe1492cdec40f49555d4c89766c98072694b9d7d",
      "transactionIndex": "0x78",
      "blockHash": "0x4a465b1ac19c5a44262b84204caf99ed01aeb44b83ca868a988ffd0a54831981",
      "blockNumber": "0x141830c",
      "gasUsed": "0xc6c6",
      "effectiveGasPrice": "0x20d99e18d",
      "from": "0xc49b5e5b9da66b9126c1a62e9761e6b2147de3e1",
      "to": "0x78cfd2d6aee191391317adc9e72f72aa062c5a84",
      "contractAddress": null
    },
    {
      "status": "0x1",
      "cumulativeGasUsed": "0xdcd763",
      "logs": [
        {
          "address": "0x73837fb3b2b3ce751c0a044659c71bf9d36a20ff",
          "topics": [
            "0x2f8788117e7eff1d82e926ec794901d17c78024a50270940304540a733656f0d",
            "0x0000000000000000000000000000000000000000000000000000000000000000",
            "0x0000000000000000000000004786fba4d836b73a39746f778db1b298b8a62131",
            "0x000000000000000000000000c49b5e5b9da66b9126c1a62e9761e6b2147de3e1"
          ],
          "data": "0x",
          "blockHash": "0x4a465b1ac19c5a44262b84204caf99ed01aeb44b83ca868a988ffd0a54831981",
          "blockNumber": "0x141830c",
          "transactionHash": "0x02882227ea4db1dd823fdcd55044a2634a32280b49f3a0b5197d6ef2240330c4",
          "transactionIndex": "0x79",
          "logIndex": "0x19d",
          "removed": false
        }
      ],
      "logsBloom": "0x00008004020000000000000000000000000000000000000000000000000100000000000000000000000000000000000000000000000000000000000000000000000000000000000000000000000000000000000000080000000000000000000000000000020200000000000000100800000000000000000000000000000000000000000000000000000008000000000000000000000000000000200000000000000000000000000000000000000000000000000000000000001000000000000000000000000200000000000000000000000000000000000100000000000020000000000000000000000000000000000000000000000000000000000000000000",
      "type": "0x0",
      "transactionHash": "0x02882227ea4db1dd823fdcd55044a2634a32280b49f3a0b5197d6ef2240330c4",
      "transactionIndex": "0x79",
      "blockHash": "0x4a465b1ac19c5a44262b84204caf99ed01aeb44b83ca868a988ffd0a54831981",
      "blockNumber": "0x141830c",
      "gasUsed": "0xc65e",
      "effectiveGasPrice": "0x20d99e18d",
      "from": "0xc49b5e5b9da66b9126c1a62e9761e6b2147de3e1",
      "to": "0x73837fb3b2b3ce751c0a044659c71bf9d36a20ff",
      "contractAddress": null
    },
    {
      "status": "0x1",
      "cumulativeGasUsed": "0xdd9da0",
      "logs": [
        {
          "address": "0xac020a4ba4739610d496631d50578f022a6c8295",
          "topics": [
            "0x2f8788117e7eff1d82e926ec794901d17c78024a50270940304540a733656f0d",
            "0x0000000000000000000000000000000000000000000000000000000000000000",
            "0x0000000000000000000000004786fba4d836b73a39746f778db1b298b8a62131",
            "0x000000000000000000000000c49b5e5b9da66b9126c1a62e9761e6b2147de3e1"
          ],
          "data": "0x",
          "blockHash": "0x4a465b1ac19c5a44262b84204caf99ed01aeb44b83ca868a988ffd0a54831981",
          "blockNumber": "0x141830c",
          "transactionHash": "0xf99093a05ac2e0c1f6fbb37e4531cdf82eadaf6afaeb9ecab839848873d47575",
          "transactionIndex": "0x7a",
          "logIndex": "0x19e",
          "removed": false
        }
      ],
      "logsBloom": "0x00008204020000000000000000000000000000000000000000000000000000000000000000000008000000000000000000000000000000000000000000000000000000000000000000000000000000000000000000080000000000000000000000000000020000000000000000100800000000000000000000000000000000000000000000000000000008000000000000000000000000000000200000000000000000001000000000000000000000000000000000000000001000000000000000000000000000000000000000000000000000000000000100000000000020000000000000000000000000000000000000000000000000000000000000000000",
      "type": "0x0",
      "transactionHash": "0xf99093a05ac2e0c1f6fbb37e4531cdf82eadaf6afaeb9ecab839848873d47575",
      "transactionIndex": "0x7a",
      "blockHash": "0x4a465b1ac19c5a44262b84204caf99ed01aeb44b83ca868a988ffd0a54831981",
      "blockNumber": "0x141830c",
      "gasUsed": "0xc63d",
      "effectiveGasPrice": "0x20d99e18d",
      "from": "0xc49b5e5b9da66b9126c1a62e9761e6b2147de3e1",
      "to": "0xac020a4ba4739610d496631d50578f022a6c8295",
      "contractAddress": null
    },
    {
      "status": "0x1",
      "cumulativeGasUsed": "0xde63fe",
      "logs": [
        {
          "address": "0x0f54da5a94a21fe7e0dd961577c861c508421cf1",
          "topics": [
            "0x2f8788117e7eff1d82e926ec794901d17c78024a50270940304540a733656f0d",
            "0x0000000000000000000000000000000000000000000000000000000000000000",
            "0x0000000000000000000000004786fba4d836b73a39746f778db1b298b8a62131",
            "0x000000000000000000000000c49b5e5b9da66b9126c1a62e9761e6b2147de3e1"
          ],
          "data": "0x",
          "blockHash": "0x4a465b1ac19c5a44262b84204caf99ed01aeb44b83ca868a988ffd0a54831981",
          "blockNumber": "0x141830c",
          "transactionHash": "0xf716c1ba271c91f966900ee00721de2014cbe78dc7753b903f6ca6c1b5c16a12",
          "transactionIndex": "0x7b",
          "logIndex": "0x19f",
          "removed": false
        }
      ],
      "logsBloom": "0x00008004020000000000000000000000000000000000000000000000000000000000000000000000000000000000000000000000000000000000000004000000000000000000000000200000000000000000000000080000000000000000000000000000020000000000000000100800000000000000000000000000000000000000000000000000000008000000000000000000000000000000200000000000000000000000000000000000000000000000000000000000001000000000000000000000000000000000000000000000000000000000000100000000000020000000000000000000000000000000000000000001000000000000000000000000",
      "type": "0x0",
      "transactionHash": "0xf716c1ba271c91f966900ee00721de2014cbe78dc7753b903f6ca6c1b5c16a12",
      "transactionIndex": "0x7b",
      "blockHash": "0x4a465b1ac19c5a44262b84204caf99ed01aeb44b83ca868a988ffd0a54831981",
      "blockNumber": "0x141830c",
      "gasUsed": "0xc65e",
      "effectiveGasPrice": "0x20d99e18d",
      "from": "0xc49b5e5b9da66b9126c1a62e9761e6b2147de3e1",
      "to": "0x0f54da5a94a21fe7e0dd961577c861c508421cf1",
      "contractAddress": null
    }
  ],
  "libraries": [],
  "pending": [],
  "returns": {},
  "timestamp": 1730196602,
  "chain": 1,
  "commit": "943e9bc"
}