{
  "transactions": [
    {
      "hash": "0x85b7e2dde9a1eb8f621a8be766958c1205ae7ccb1f3c8c4a97ebe9e976bf841a",
      "transactionType": "CALL",
      "contractName": null,
      "contractAddress": "0x78cfd2d6aee191391317adc9e72f72aa062c5a84",
      "function": "withdrawToCEX(address,uint256,address,address,bytes)",
      "arguments": [
        "0xA0b86991c6218b36c1d19D4a2e9Eb0cE3606eB48",
        "999999999",
        "0x7E857de437A4Dda3A98Cf3fd37D6B36c139594E8",
        "0x0F54Da5a94a21fe7e0DD961577c861c508421Cf1",
        "0x"
      ],
      "transaction": {
        "from": "0xc49b5e5b9da66b9126c1a62e9761e6b2147de3e1",
        "to": "0x78cfd2d6aee191391317adc9e72f72aa062c5a84",
        "gas": "0x18717",
        "value": "0x0",
        "input": "0x129d9b5e000000000000000000000000a0b86991c6218b36c1d19d4a2e9eb0ce3606eb48000000000000000000000000000000000000000000000000000000003b9ac9ff0000000000000000000000007e857de437a4dda3a98cf3fd37d6b36c139594e80000000000000000000000000f54da5a94a21fe7e0dd961577c861c508421cf100000000000000000000000000000000000000000000000000000000000000a00000000000000000000000000000000000000000000000000000000000000000",
        "nonce": "0x8d",
        "chainId": "0x1"
      },
      "additionalContracts": [],
      "isFixedGasLimit": false
    }
  ],
  "receipts": [
    {
      "status": "0x1",
      "cumulativeGasUsed": "0xa35ff4",
      "logs": [
        {
          "address": "0xa0b86991c6218b36c1d19d4a2e9eb0ce3606eb48",
          "topics": [
            "0xddf252ad1be2c89b69c2b068fc378daa952ba7f163c4a11628f55a4df523b3ef",
            "0x00000000000000000000000078cfd2d6aee191391317adc9e72f72aa062c5a84",
            "0x0000000000000000000000007e857de437a4dda3a98cf3fd37d6b36c139594e8"
          ],
          "data": "0x000000000000000000000000000000000000000000000000000000003b9ac9ff",
          "blockHash": "0x5f616e396fadc023107dfe61b582d8da62fce709d5872e1205497d1662955c5d",
          "blockNumber": "0x141d88d",
          "transactionHash": "0x85b7e2dde9a1eb8f621a8be766958c1205ae7ccb1f3c8c4a97ebe9e976bf841a",
          "transactionIndex": "0x8f",
          "logIndex": "0x118",
          "removed": false
        },
        {
          "address": "0x78cfd2d6aee191391317adc9e72f72aa062c5a84",
          "topics": [
            "0x77cfc63959f1ab32cc7fa9c3da6fdf58bf6a9afef6b1534ea9dd04b1cdd6b2ac"
          ],
          "data": "0x000000000000000000000000a0b86991c6218b36c1d19d4a2e9eb0ce3606eb48000000000000000000000000000000000000000000000000000000003b9ac9ff0000000000000000000000007e857de437a4dda3a98cf3fd37d6b36c139594e80000000000000000000000000f54da5a94a21fe7e0dd961577c861c508421cf1",
          "blockHash": "0x5f616e396fadc023107dfe61b582d8da62fce709d5872e1205497d1662955c5d",
          "blockNumber": "0x141d88d",
          "transactionHash": "0x85b7e2dde9a1eb8f621a8be766958c1205ae7ccb1f3c8c4a97ebe9e976bf841a",
          "transactionIndex": "0x8f",
          "logIndex": "0x119",
          "removed": false
        }
      ],
      "logsBloom": "0x00000000000000000000800000000000000000000010000000000000000000000000000000000000000000000000000000000000000000000000000000000040000000000000000008000048000200000000000000000000000000000001000000000000000000000000000000000000000000000000000000000010000000000000000000000000000004080000000000000000010000000000000000000000000000001000200000000000000000000800000000000000000000000000000000000002000000000000000000000000010000000000000000000000000000000000000000000000020000000000000000000000000000000000000000000000",
      "type": "0x0",
      "transactionHash": "0x85b7e2dde9a1eb8f621a8be766958c1205ae7ccb1f3c8c4a97ebe9e976bf841a",
      "transactionIndex": "0x8f",
      "blockHash": "0x5f616e396fadc023107dfe61b582d8da62fce709d5872e1205497d1662955c5d",
      "blockNumber": "0x141d88d",
      "gasUsed": "0x11b25",
      "effectiveGasPrice": "0x1aa25f12a",
      "from": "0xc49b5e5b9da66b9126c1a62e9761e6b2147de3e1",
      "to": "0x78cfd2d6aee191391317adc9e72f72aa062c5a84",
      "contractAddress": null
    }
  ],
  "libraries": [],
  "pending": [],
  "returns": {},
  "timestamp": 1730460458,
  "chain": 1,
  "commit": "3b492ba"
}