{
  "transactions": [
    {
      "hash": null,
      "transactionType": "CALL",
      "contractName": null,
      "contractAddress": "0x78cfd2d6aee191391317adc9e72f72aa062c5a84",
      "function": "withdrawToCEX(address,uint256,address,address,bytes)",
      "arguments": [
        "0xA0b86991c6218b36c1d19D4a2e9Eb0cE3606eB48",
        "999999999",
        "0x7E857de437A4Dda3A98Cf3fd37D6B36c139594E8",
        "0x0F54Da5a94a21fe7e0DD961577c861c508421Cf1",
        "0x"
      ],
      "transaction": {
        "from": "0xc49b5e5b9da66b9126c1a62e9761e6b2147de3e1",
        "to": "0x78cfd2d6aee191391317adc9e72f72aa062c5a84",
        "gas": "0x18717",
        "value": "0x0",
        "input": "0x129d9b5e000000000000000000000000a0b86991c6218b36c1d19d4a2e9eb0ce3606eb48000000000000000000000000000000000000000000000000000000003b9ac9ff0000000000000000000000007e857de437a4dda3a98cf3fd37d6b36c139594e80000000000000000000000000f54da5a94a21fe7e0dd961577c861c508421cf100000000000000000000000000000000000000000000000000000000000000a00000000000000000000000000000000000000000000000000000000000000000",
        "nonce": "0x8d",
        "chainId": "0x1"
      },
      "additionalContracts": [],
      "isFixedGasLimit": false
    }
  ],
  "receipts": [],
  "libraries": [],
  "pending": [],
  "returns": {},
  "timestamp": 1730460262,
  "chain": 1,
  "commit": "3b492ba"
}