{
  "transactions": [
    {
      "hash": null,
      "transactionType": "CALL",
      "contractName": null,
      "contractAddress": "0x8d859ba19cc903cb71f7d36390f694c76821fce2",
      "function": "settle(uint256)",
      "arguments": [
        "470210"
      ],
      "transaction": {
        "from": "0xc49b5e5b9da66b9126c1a62e9761e6b2147de3e1",
        "to": "0x8d859ba19cc903cb71f7d36390f694c76821fce2",
        "gas": "0x16cce7",
        "value": "0x0",
        "input": "0x8df828000000000000000000000000000000000000000000000000000000000000072cc2",
        "nonce": "0x70",
        "chainId": "0x1"
      },
      "additionalContracts": [],
      "isFixedGasLimit": false
    },
    {
      "hash": null,
      "transactionType": "CALL",
      "contractName": null,
      "contractAddress": "0xb26aaa980feadd4e06e51ff435d1ac9617d9facc",
      "function": "redeem(address,uint256,bytes)",
      "arguments": [
        "0x8D859BA19cC903cb71F7d36390f694c76821fCE2",
        "92756757",
        "0x"
      ],
      "transaction": {
        "from": "0xc49b5e5b9da66b9126c1a62e9761e6b2147de3e1",
        "to": "0xb26aaa980feadd4e06e51ff435d1ac9617d9facc",
        "gas": "0xb4ba5",
        "value": "0x0",
        "input": "0x10badf4e0000000000000000000000008d859ba19cc903cb71f7d36390f694c76821fce20000000000000000000000000000000000000000000000000000000005875b1500000000000000000000000000000000000000000000000000000000000000600000000000000000000000000000000000000000000000000000000000000000",
        "nonce": "0x71",
        "chainId": "0x1"
      },
      "additionalContracts": [],
      "isFixedGasLimit": false
    },
    {
      "hash": null,
      "transactionType": "CALL",
      "contractName": null,
      "contractAddress": "0xb26aaa980feadd4e06e51ff435d1ac9617d9facc",
      "function": "withdrawFromStrategy(address,uint256,bytes)",
      "arguments": [
        "0x8D859BA19cC903cb71F7d36390f694c76821fCE2",
        "92756756",
        "0x"
      ],
      "transaction": {
        "from": "0xc49b5e5b9da66b9126c1a62e9761e6b2147de3e1",
        "to": "0xb26aaa980feadd4e06e51ff435d1ac9617d9facc",
        "gas": "0x1a9b6",
        "value": "0x0",
        "input": "0x126f89150000000000000000000000008d859ba19cc903cb71f7d36390f694c76821fce20000000000000000000000000000000000000000000000000000000005875b1400000000000000000000000000000000000000000000000000000000000000600000000000000000000000000000000000000000000000000000000000000000",
        "nonce": "0x72",
        "chainId": "0x1"
      },
      "additionalContracts": [],
      "isFixedGasLimit": false
    },
    {
      "hash": null,
      "transactionType": "CALL",
      "contractName": null,
      "contractAddress": "0xb26aaa980feadd4e06e51ff435d1ac9617d9facc",
      "function": "withdrawToCEX(address,uint256,address,address,bytes)",
      "arguments": [
        "0xA0b86991c6218b36c1d19D4a2e9Eb0cE3606eB48",
        "92756756",
        "0x790ac11183ddE23163b307E3F7440F2460526957",
        "0x8D859BA19cC903cb71F7d36390f694c76821fCE2",
        "0x"
      ],
      "transaction": {
        "from": "0xc49b5e5b9da66b9126c1a62e9761e6b2147de3e1",
        "to": "0xb26aaa980feadd4e06e51ff435d1ac9617d9facc",
        "gas": "0x1a125",
        "value": "0x0",
        "input": "0x129d9b5e000000000000000000000000a0b86991c6218b36c1d19d4a2e9eb0ce3606eb480000000000000000000000000000000000000000000000000000000005875b14000000000000000000000000790ac11183dde23163b307e3f7440f24605269570000000000000000000000008d859ba19cc903cb71f7d36390f694c76821fce200000000000000000000000000000000000000000000000000000000000000a00000000000000000000000000000000000000000000000000000000000000000",
        "nonce": "0x73",
        "chainId": "0x1"
      },
      "additionalContracts": [],
      "isFixedGasLimit": false
    }
  ],
  "receipts": [],
  "libraries": [],
  "pending": [],
  "returns": {},
  "timestamp": 1730115182,
  "chain": 1,
  "commit": "719c25b"
}