{
  "transactions": [
    {
      "hash": "0x7156dc7363ea0e359a5f7877337da2277d80687287ec9500c60a8f0580ab9de3",
      "transactionType": "CALL",
      "contractName": null,
      "contractAddress": "0x9a79f4105a4e1a050ba0b42f25351d394fa7e1dc",
      "function": "addStrategy(address)",
      "arguments": [
        "0xE0e83f21D5B6Da61c9cF75d3b89FBCacfbFde327"
      ],
      "transaction": {
        "from": "0xc49b5e5b9da66b9126c1a62e9761e6b2147de3e1",
        "to": "0x9a79f4105a4e1a050ba0b42f25351d394fa7e1dc",
        "gas": "0x2730f",
        "value": "0x0",
        "input": "0x223e5479000000000000000000000000e0e83f21d5b6da61c9cf75d3b89fbcacfbfde327",
        "nonce": "0x91",
        "chainId": "0x1"
      },
      "additionalContracts": [],
      "isFixedGasLimit": false
    },
    {
      "hash": "0x596c3ad272df0cbf05d53d02368fd01933c1e07059d8947011cc78b350b612ae",
      "transactionType": "CALL",
      "contractName": null,
      "contractAddress": "0x9a79f4105a4e1a050ba0b42f25351d394fa7e1dc",
      "function": "grantRole(bytes32,address)",
      "arguments": [
        "0xa49807205ce4d355092ef5a8a18f56e8913cf4a201fbe287825b095693c21775",
        "0x4786fba4d836B73A39746f778Db1B298B8a62131"
      ],
      "transaction": {
        "from": "0xc49b5e5b9da66b9126c1a62e9761e6b2147de3e1",
        "to": "0x9a79f4105a4e1a050ba0b42f25351d394fa7e1dc",
        "gas": "0x1263f",
        "value": "0x0",
        "input": "0x2f2ff15da49807205ce4d355092ef5a8a18f56e8913cf4a201fbe287825b095693c217750000000000000000000000004786fba4d836b73a39746f778db1b298b8a62131",
        "nonce": "0x92",
        "chainId": "0x1"
      },
      "additionalContracts": [],
      "isFixedGasLimit": false
    },
    {
      "hash": "0x714b1c87a4f329e64bb75cb28b43caec9879fd2b5a9b9adac2f3d1abe269032c",
      "transactionType": "CALL",
      "contractName": null,
      "contractAddress": "0x9a79f4105a4e1a050ba0b42f25351d394fa7e1dc",
      "function": "grantRole(bytes32,address)",
      "arguments": [
        "0x0000000000000000000000000000000000000000000000000000000000000000",
        "0x4786fba4d836B73A39746f778Db1B298B8a62131"
      ],
      "transaction": {
        "from": "0xc49b5e5b9da66b9126c1a62e9761e6b2147de3e1",
        "to": "0x9a79f4105a4e1a050ba0b42f25351d394fa7e1dc",
        "gas": "0x1240d",
        "value": "0x0",
        "input": "0x2f2ff15d00000000000000000000000000000000000000000000000000000000000000000000000000000000000000004786fba4d836b73a39746f778db1b298b8a62131",
        "nonce": "0x93",
        "chainId": "0x1"
      },
      "additionalContracts": [],
      "isFixedGasLimit": false
    }
  ],
  "receipts": [
    {
      "status": "0x1",
      "cumulativeGasUsed": "0xe9b6c2",
      "logs": [],
      "logsBloom": "0x00000000000000000000000000000000000000000000000000000000000000000000000000000000000000000000000000000000000000000000000000000000000000000000000000000000000000000000000000000000000000000000000000000000000000000000000000000000000000000000000000000000000000000000000000000000000000000000000000000000000000000000000000000000000000000000000000000000000000000000000000000000000000000000000000000000000000000000000000000000000000000000000000000000000000000000000000000000000000000000000000000000000000000000000000000000",
      "type": "0x0",
      "transactionHash": "0x7156dc7363ea0e359a5f7877337da2277d80687287ec9500c60a8f0580ab9de3",
      "transactionIndex": "0x7e",
      "blockHash": "0xcccc250e51d9116e7d2ec12022f2b6953acfbdc864c4f2539bac16be3f52f864",
      "blockNumber": "0x141de33",
      "gasUsed": "0x1c5fc",
      "effectiveGasPrice": "0x2f589d1ad",
      "from": "0xc49b5e5b9da66b9126c1a62e9761e6b2147de3e1",
      "to": "0x9a79f4105a4e1a050ba0b42f25351d394fa7e1dc",
      "contractAddress": null
    },
    {
      "status": "0x1",
      "cumulativeGasUsed": "0xea7ff4",
      "logs": [
        {
          "address": "0x9a79f4105a4e1a050ba0b42f25351d394fa7e1dc",
          "topics": [
            "0x2f8788117e7eff1d82e926ec794901d17c78024a50270940304540a733656f0d",
            "0xa49807205ce4d355092ef5a8a18f56e8913cf4a201fbe287825b095693c21775",
            "0x0000000000000000000000004786fba4d836b73a39746f778db1b298b8a62131",
            "0x000000000000000000000000c49b5e5b9da66b9126c1a62e9761e6b2147de3e1"
          ],
          "data": "0x",
          "blockHash": "0xcccc250e51d9116e7d2ec12022f2b6953acfbdc864c4f2539bac16be3f52f864",
          "blockNumber": "0x141de33",
          "transactionHash": "0x596c3ad272df0cbf05d53d02368fd01933c1e07059d8947011cc78b350b612ae",
          "transactionIndex": "0x7f",
          "logIndex": "0x1e1",
          "removed": false
        }
      ],
      "logsBloom": "0x00008004020000000000000000000000000000000000000000000000000000000000000000000000000000000000000000000000000000000000000000000000000000000000000080000000000000000000000060080000000000000000000000000000000000000000000000100000000000000000000800000000000000000000000000000000000008000000004000000000000000000000200000000000000000000002000000000000000000000000000000000000001000000000000000000000000000000000000000000000000000000000000100000000000000000000000000000000000000000000000000000000000000000000000000000000",
      "type": "0x0",
      "transactionHash": "0x596c3ad272df0cbf05d53d02368fd01933c1e07059d8947011cc78b350b612ae",
      "transactionIndex": "0x7f",
      "blockHash": "0xcccc250e51d9116e7d2ec12022f2b6953acfbdc864c4f2539bac16be3f52f864",
      "blockNumber": "0x141de33",
      "gasUsed": "0xc932",
      "effectiveGasPrice": "0x2f589d1ad",
      "from": "0xc49b5e5b9da66b9126c1a62e9761e6b2147de3e1",
      "to": "0x9a79f4105a4e1a050ba0b42f25351d394fa7e1dc",
      "contractAddress": null
    },
    {
      "status": "0x1",
      "cumulativeGasUsed": "0xeb47a6",
      "logs": [
        {
          "address": "0x9a79f4105a4e1a050ba0b42f25351d394fa7e1dc",
          "topics": [
            "0x2f8788117e7eff1d82e926ec794901d17c78024a50270940304540a733656f0d",
            "0x0000000000000000000000000000000000000000000000000000000000000000",
            "0x0000000000000000000000004786fba4d836b73a39746f778db1b298b8a62131",
            "0x000000000000000000000000c49b5e5b9da66b9126c1a62e9761e6b2147de3e1"
          ],
          "data": "0x",
          "blockHash": "0xcccc250e51d9116e7d2ec12022f2b6953acfbdc864c4f2539bac16be3f52f864",
          "blockNumber": "0x141de33",
          "transactionHash": "0x714b1c87a4f329e64bb75cb28b43caec9879fd2b5a9b9adac2f3d1abe269032c",
          "transactionIndex": "0x80",
          "logIndex": "0x1e2",
          "removed": false
        }
      ],
      "logsBloom": "0x00008004020000000000000000000000000000000000000000000000000000000000000000000000000000000000000000000000000000000000000000000000000000000000000080000000000000000000000040080000000000000000000000000000020000000000000000100800000000000000000000000000000000000000000000000000000008000000000000000000000000000000200000000000000000000002000000000000000000000000000000000000001000000000000000000000000000000000000000000000000000000000000100000000000020000000000000000000000000000000000000000000000000000000000000000000",
      "type": "0x0",
      "transactionHash": "0x714b1c87a4f329e64bb75cb28b43caec9879fd2b5a9b9adac2f3d1abe269032c",
      "transactionIndex": "0x80",
      "blockHash": "0xcccc250e51d9116e7d2ec12022f2b6953acfbdc864c4f2539bac16be3f52f864",
      "blockNumber": "0x141de33",
      "gasUsed": "0xc7b2",
      "effectiveGasPrice": "0x2f589d1ad",
      "from": "0xc49b5e5b9da66b9126c1a62e9761e6b2147de3e1",
      "to": "0x9a79f4105a4e1a050ba0b42f25351d394fa7e1dc",
      "contractAddress": null
    }
  ],
  "libraries": [],
  "pending": [],
  "returns": {},
  "timestamp": 1730477860,
  "chain": 1,
  "commit": "2f4d5a1"
}